:020000040800F2
:1000000000000120C10800081109000811090008BA
:10001000110900081109000811090008000000007A
:1000200000000000000000000000000011090008AE
:10003000110900080000000011090008110900085A
:10004000000000001109000811090008110900084A
:100050001109000811090008110900081109000818
:10006000110900081109000811090008000000002A
:100070000000000000000000000000000000000080
:10008000000000000000000011090008000000004E
:10009000000000000000000000000000110900083E
:1000A00011090008110900081109000811090008C8
:1000B00011090008110900080000000011090008DA
:1000C00011090008110900081109000811090008A8
:1000D00011090008000000000000000000000000FE
:1000E00011090008110900081109000800000000AA
:1000F0000000000000000000000000000000000000
:1001000000000000110900080000000011090008AB
:1001100000000000000000000000000000000000DF
:1001200000000000000000000000000000000000CF
:1001300000000000000000000000000000000000BF
:10014000000000000000000000000000110900088D
:10015000000000000000000000000000000000009F
:10016000110900081109000800000000000000004B
:10017000000000000000000000000000000000007F
:10018000000000001109000800000000000000004D
:040190001109000849
:1001940010B5054C237833B9044B13B10448AFF3BD
:1001A40000800123237010BD4404002000000000DF
:1001B400780A000808B5034B1BB103490348AFF3A1
:1001C400008008BD0000000048040020780A0008F0
:1001D40080B483B000AF7860084611461A460346DF
:1001E400FB700B46BB7013467B70474B1A6B7B78D6
:1001F400012101FA03F3444913430B63BB78002B39
:1002040031D07B681A68FB785B00012101FA03F3A3
:100214001A437B681A607B681A68FB785B000133B9
:10022400012101FA03F3DB431A407B681A603B7C2B
:10023400002B02D0012B0AD060E07B685A68FB785F
:10024400012101FA03F31A437B685A6056E07B6884
:100254005A68FB78012101FA03F3DB431A407B68F7
:100264005A6000BF4AE07B681A68FB785B00012192
:1002740001FA03F3DB431A407B681A607B681A684F
:10028400FB785B000133012101FA03F3DB431A40DD
:100294007B681A603B7C002B02D0012B17D02DE029
:1002A4007B68DA68FB785B00012101FA03F3DB4326
:1002B4001A407B68DA607B68DA68FB785B0001339C
:1002C400012101FA03F31A437B68DA6016E07B68C4
:1002D400DA68FB785B00012101FA03F31A437B68B7
:1002E400DA607B68DA68FB785B000133012101FA8C
:1002F40003F3DB431A407B68DA6000BF00BF0C37AE
:10030400BD465DF8047B70470038024080B483B07A
:1003140000AF78600B46FB701346BB707B681A68AD
:10032400FB785B00012101FA03F31340002B18D082
:10033400BB78002B09D07B685A69FB78012101FA4C
:1003440003F31A437B685A6109E07B685A69FB78B6
:10035400012101FA03F3DB431A407B685A6100234D
:1003640000E0012318460C37BD465DF8047B704756
:1003740080B485B000AF78600B46FB707B681A6868
:10038400FB785B00012101FA03F31340002B0FD12A
:100394007B681A69FB78012101FA03F31340002BEF
:1003A40002D00123FB7301E00023FB73FB7B00E01D
:1003B400012318461437BD465DF8047B70470000DE
:1003C40080B582B002AF214B19780123009300233A
:1003D40000221F48FFF7FCFE1C4B597801230093B1
:1003E400002300221A48FFF7F3FE184B99780123E3
:1003F4000093002300221648FFF7EAFE134BD97836
:1004040001230093002300221148FFF7E1FE114B62
:10041400197801230093002301220D48FFF7D8FE29
:100424000C4B597801230093002301220848FFF75D
:10043400CFFE084B9978012300930023012204483E
:10044400FFF7C6FE00BFBD4680BD00BF0000002010
:10045400000002400400002080B582B000AF0023F9
:100464007B6041E0244A7B6813441B7800221946D0
:100474002248FFF74BFF00233B6026E0204A3B68FD
:1004840013441B7819461D48FFF772FF0346002BDF
:1004940018D100BF1A4A3B6813441B781946174801
:1004A400FFF766FF0346002BF4D116493A6813465A
:1004B4005B001344CA187B6813441A78124B1A70F1
:1004C40000F030F83B6801333B603B68032BD5DD1B
:1004D400094A7B6813441B78012219460748FFF731
:1004E40015FF7B6801337B607B68022BBADD00BF9C
:1004F4000837BD4680BD00BF040000200000024054
:1005040000000020080000206004002080B400AF38
:10051400034B1B781846BD465DF8047B704700BF4B
:100524006004002080B582B000AFFFF7EFFF034600
:100534007B607B68092B00F2E98001A252F823F06A
:100544006D05000897050008C1050008EB050008C3
:10055400150600083F06000869060008930600080F
:10056400BD060008E7060008002200216948FFF7DD
:10057400CDFE002201216748FFF7C8FE00220221B8
:100584006448FFF7C3FE002203216248FFF7BEFE62
:10059400BCE0012200215F48FFF7B8FE00220121E0
:1005A4005C48FFF7B3FE002202215A48FFF7AEFE73
:1005B400002203215748FFF7A9FEA7E000220021EB
:1005C4005448FFF7A3FE012201215248FFF79EFE83
:1005D400002202214F48FFF799FE002203214D48D3
:1005E400FFF794FE92E0012200214A48FFF78EFEB5
:1005F400012201214748FFF789FE002202214548D4
:10060400FFF784FE002203214248FFF77FFE7DE0CE
:10061400002200213F48FFF779FE002201213D48D6
:10062400FFF774FE012202213A48FFF76FFE002211
:1006340003213848FFF76AFE68E0012200213548AB
:10064400FFF764FE002201213248FFF75FFE01221A
:1006540002213048FFF75AFE002203212D48FFF7FC
:1006640055FE53E0002200212A48FFF74FFE0122E5
:1006740001212848FFF74AFE012202212548FFF7FD
:1006840045FE002203212348FFF740FE3EE00122FD
:1006940000212048FFF73AFE012201211D48FFF7FF
:1006A40035FE012202211B48FFF730FE0022032100
:1006B4001848FFF72BFE29E0002200211548FFF718
:1006C40025FE002201211348FFF720FE002202210B
:1006D4001048FFF71BFE012203210E48FFF716FE08
:1006E40014E0012200210B48FFF710FE0022012133
:1006F4000848FFF70BFE002202210648FFF706FE1A
:10070400012203210348FFF701FE00BF00BF0837A1
:10071400BD4680BD0004024080B582B002AF012313
:1007240000930123012200210F48FFF751FD01230B
:1007340000930123012201210B48FFF749FD012306
:1007440000930123012202210748FFF741FD012301
:1007540000930123012203210348FFF739FDFFF72A
:100764002FFEFFF779FEFCE70004024080B500AFDE
:10077400164BD3F88830154A43F47003C2F8883016
:10078400134B1B68124A43F001031360104B002201
:100794009A600F4B1B680E4A23F0847323F4803352
:1007A40013600B4B0B4A5A60094B1B68084A23F42D
:1007B40080231360064B0022DA6000F00DF8034B2F
:1007C4004FF000629A6000BF80BD00BF00ED00E002
:1007D400003802401030002480B483B000AF0023FE
:1007E4007B6000233B60314B1B68304A43F4803309
:1007F40013602E4B1B6803F400333B607B680133AA
:100804007B603B68002B03D17B68B3F5A04FF0D12C
:10081400264B1B6803F40033002B02D001233B60FA
:1008240001E000233B603B68012B39D11F4B1B6C5B
:100834001E4A43F0805313641D4B1B681C4A43F447
:1008440040431360194B194A9B689360174B174A2E
:100854009B689360154B9B68144A43F480539360E0
:10086400124B144A5A60114B1B68104A43F08073B0
:10087400136000BF0D4B1B6803F00073002BF9D00D
:100884000D4B40F202721A60084B9B68074A23F032
:1008940003039360054B9B68044A43F0020393608F
:1008A40000BF0C37BD465DF8047B7047003802403A
:1008B4000070004019544107003C02400D48854631
:1008C4000D480E490E4A002302E0D458C4500433A4
:1008D400C4188C42F9D30B4A0B4C002301E013607B
:1008E4000432A242FBD3FFF741FF00F011F8FFF7F7
:1008F40013FFFEE700000120000000204404002054
:10090400A00A00084404002088040020FEE7000038
:1009140070B50D4E0D4D761BB61006D00024013473
:1009240055F8043B9847A642F9D1094E094D761B68
:1009340000F0A0F8B61006D00024013455F8043BAA
:100944009847A642F9D170BD940A0008940A000899
:100954009C0A0008940A0008024B13B1024800F0F4
:1009640005B87047000000007D0900080023014617
:100974001A46184600F01EB838B50A4C0A4D641BD6
:10098400A4100AD004F18043013B05EB8305013C2C
:1009940055F804399847002CF9D1BDE8384000F0E7
:1009A4006FB800BFA00A00089C0A0008704700BF87
:1009B400704700BF2DE9F8432B4D0646286898463A
:1009C4000F469146FFF7F2FF284B1C68D4F84831D4
:1009D400002B3DD05A681F2A0DDC02F1010C16BB16
:1009E4000232C3F804C0286843F82270FFF7E0FF1E
:1009F4000020BDE8F8831E4B7BB34FF4C870AFF3FF
:100A04000080034648B3D4F848210021C0E90021FE
:100A14004FF0010CC4F848010A46C0F88811C0F828
:100A24008C11002EDCD003EB82010124C1F88890E4
:100A3400D3F8880194402043022EC3F88801C1F8FA
:100A44000881CDD1D3F88C110C43C3F88C41C7E78E
:100A540004F5A673C4F84831BCE72868FFF7A8FF7B
:100A64004FF0FF30C5E700BF40040020900A0008A3
:100A740000000000F8B500BFF8BC08BC9E467047F3
:0C0A8400F8B500BFF8BC08BC9E467047E7
:040A9000180000202A
:080A94005D090008B90100082A
:040A9C0095010008B8
:100AA0000102030405060700010203040506070806
:100AB000092A0023000000000000000004030020B9
:100AC0006C030020D40300200000000000000000A0
:100AD0000000000000000000000000000000000016
:100AE0000000000000000000000000000000000006
:100AF00000000000000000000000000000000000F6
:100B000000000000000000000000000000000000E5
:100B100000000000000000000000000000000000D5
:100B200000000000000000000000000000000000C5
:100B300000000000000000000000000000000000B5
:100B400000000000000000000000000000000000A5
:100B50000000000000000000000000000000000095
:100B600001000000000000000E33CDAB34126DE632
:100B7000ECDE05000B00000000000000000000009B
:100B80000000000000000000000000000000000065
:100B90000000000000000000000000000000000055
:100BA0000000000000000000000000000000000045
:100BB0000000000000000000000000000000000035
:040EE0006404002086
:04000005080008C126
:00000001FF
